{
  "_format": "hh-sol-artifact-1",
  "contractName": "JobAssignmentContract",
  "sourceName": "contracts/JobAssignmentContract.sol",
  "abi": [
    {
      "anonymous": false,
      "inputs": [
        {
          "indexed": true,
          "internalType": "uint256",
          "name": "assignmentId",
          "type": "uint256"
        }
      ],
      "name": "AssignmentAccepted",
      "type": "event"
    },
    {
      "anonymous": false,
      "inputs": [
        {
          "indexed": true,
          "internalType": "uint256",
          "name": "assignmentId",
          "type": "uint256"
        }
      ],
      "name": "AssignmentCompleted",
      "type": "event"
    },
    {
      "anonymous": false,
      "inputs": [
        {
          "indexed": true,
          "internalType": "uint256",
          "name": "assignmentId",
          "type": "uint256"
        },
        {
          "indexed": true,
          "internalType": "address",
          "name": "employer",
          "type": "address"
        },
        {
          "indexed": true,
          "internalType": "address",
          "name": "recruiter",
          "type": "address"
        },
        {
          "indexed": false,
          "internalType": "uint256",
          "name": "jobId",
          "type": "uint256"
        },
        {
          "indexed": false,
          "internalType": "uint256",
          "name": "payment",
          "type": "uint256"
        }
      ],
      "name": "AssignmentCreated",
      "type": "event"
    },
    {
      "anonymous": false,
      "inputs": [
        {
          "indexed": true,
          "internalType": "uint256",
          "name": "assignmentId",
          "type": "uint256"
        },
        {
          "indexed": true,
          "internalType": "address",
          "name": "recruiter",
          "type": "address"
        },
        {
          "indexed": false,
          "internalType": "uint256",
          "name": "amount",
          "type": "uint256"
        }
      ],
      "name": "PaymentReleased",
      "type": "event"
    },
    {
      "inputs": [
        {
          "internalType": "uint256",
          "name": "_assignmentId",
          "type": "uint256"
        }
      ],
      "name": "acceptAssignment",
      "outputs": [],
      "stateMutability": "nonpayable",
      "type": "function"
    },
    {
      "inputs": [],
      "name": "assignmentCounter",
      "outputs": [
        {
          "internalType": "uint256",
          "name": "",
          "type": "uint256"
        }
      ],
      "stateMutability": "view",
      "type": "function"
    },
    {
      "inputs": [
        {
          "internalType": "uint256",
          "name": "",
          "type": "uint256"
        }
      ],
      "name": "assignments",
      "outputs": [
        {
          "internalType": "uint256",
          "name": "id",
          "type": "uint256"
        },
        {
          "internalType": "address",
          "name": "employer",
          "type": "address"
        },
        {
          "internalType": "address",
          "name": "recruiter",
          "type": "address"
        },
        {
          "internalType": "uint256",
          "name": "jobId",
          "type": "uint256"
        },
        {
          "internalType": "uint256",
          "name": "payment",
          "type": "uint256"
        },
        {
          "internalType": "enum JobAssignmentContract.AssignmentStatus",
          "name": "status",
          "type": "uint8"
        },
        {
          "internalType": "uint256",
          "name": "createdAt",
          "type": "uint256"
        },
        {
          "internalType": "uint256",
          "name": "completedAt",
          "type": "uint256"
        }
      ],
      "stateMutability": "view",
      "type": "function"
    },
    {
      "inputs": [
        {
          "internalType": "uint256",
          "name": "_assignmentId",
          "type": "uint256"
        }
      ],
      "name": "completeAssignment",
      "outputs": [],
      "stateMutability": "nonpayable",
      "type": "function"
    },
    {
      "inputs": [
        {
          "internalType": "address",
          "name": "_recruiter",
          "type": "address"
        },
        {
          "internalType": "uint256",
          "name": "_jobId",
          "type": "uint256"
        },
        {
          "internalType": "uint256",
          "name": "_offChainAssignmentId",
          "type": "uint256"
        }
      ],
      "name": "createAssignment",
      "outputs": [],
      "stateMutability": "payable",
      "type": "function"
    },
    {
      "inputs": [
        {
          "internalType": "uint256",
          "name": "_assignmentId",
          "type": "uint256"
        }
      ],
      "name": "getAssignment",
      "outputs": [
        {
          "components": [
            {
              "internalType": "uint256",
              "name": "id",
              "type": "uint256"
            },
            {
              "internalType": "address",
              "name": "employer",
              "type": "address"
            },
            {
              "internalType": "address",
              "name": "recruiter",
              "type": "address"
            },
            {
              "internalType": "uint256",
              "name": "jobId",
              "type": "uint256"
            },
            {
              "internalType": "uint256",
              "name": "payment",
              "type": "uint256"
            },
            {
              "internalType": "enum JobAssignmentContract.AssignmentStatus",
              "name": "status",
              "type": "uint8"
            },
            {
              "internalType": "uint256",
              "name": "createdAt",
              "type": "uint256"
            },
            {
              "internalType": "uint256",
              "name": "completedAt",
              "type": "uint256"
            }
          ],
          "internalType": "struct JobAssignmentContract.Assignment",
          "name": "",
          "type": "tuple"
        }
      ],
      "stateMutability": "view",
      "type": "function"
    }
  ],
  "bytecode": "0x608060405234801561001057600080fd5b50611289806100206000396000f3fe6080604052600436106100555760003560e01c80633b0a4d021461005a5780633d788f43146100765780634e50c75c146100a15780635239c727146100e55780635e3879051461010e5780636907be851461014b575b600080fd5b610074600480360381019061006f9190610bcf565b610174565b005b34801561008257600080fd5b5061008b61042e565b6040516100989190610c31565b60405180910390f35b3480156100ad57600080fd5b506100c860048036038101906100c39190610c4c565b610434565b6040516100dc989796959493929190610cff565b60405180910390f35b3480156100f157600080fd5b5061010c60048036038101906101079190610c4c565b6104c9565b005b34801561011a57600080fd5b5061013560048036038101906101309190610c4c565b6107d1565b6040516101429190610e4c565b60405180910390f35b34801561015757600080fd5b50610172600480360381019061016d9190610c4c565b610917565b005b600034116101b7576040517f08c379a00000000000000000000000000000000000000000000000000000000081526004016101ae90610ec5565b60405180910390fd5b600073ffffffffffffffffffffffffffffffffffffffff168373ffffffffffffffffffffffffffffffffffffffff1603610226576040517f08c379a000000000000000000000000000000000000000000000000000000000815260040161021d90610f31565b60405180910390fd5b6001600081548092919061023990610f80565b91905055506040518061010001604052808281526020013373ffffffffffffffffffffffffffffffffffffffff1681526020018473ffffffffffffffffffffffffffffffffffffffff168152602001838152602001348152602001600060048111156102a8576102a7610c88565b5b8152602001428152602001600081525060008060015481526020019081526020016000206000820151816000015560208201518160010160006101000a81548173ffffffffffffffffffffffffffffffffffffffff021916908373ffffffffffffffffffffffffffffffffffffffff16021790555060408201518160020160006101000a81548173ffffffffffffffffffffffffffffffffffffffff021916908373ffffffffffffffffffffffffffffffffffffffff160217905550606082015181600301556080820151816004015560a08201518160050160006101000a81548160ff021916908360048111156103a3576103a2610c88565b5b021790555060c0820151816006015560e082015181600701559050508273ffffffffffffffffffffffffffffffffffffffff163373ffffffffffffffffffffffffffffffffffffffff166001547f93330d0404f3b329876200ae1e8939a7e161f3b9eb891eec84cd081a322d09138534604051610421929190610fc8565b60405180910390a4505050565b60015481565b60006020528060005260406000206000915090508060000154908060010160009054906101000a900473ffffffffffffffffffffffffffffffffffffffff16908060020160009054906101000a900473ffffffffffffffffffffffffffffffffffffffff16908060030154908060040154908060050160009054906101000a900460ff16908060060154908060070154905088565b803373ffffffffffffffffffffffffffffffffffffffff1660008083815260200190815260200160002060010160009054906101000a900473ffffffffffffffffffffffffffffffffffffffff1673ffffffffffffffffffffffffffffffffffffffff161461056d576040517f08c379a00000000000000000000000000000000000000000000000000000000081526004016105649061103d565b60405180910390fd5b6001600481111561058157610580610c88565b5b60008084815260200190815260200160002060050160009054906101000a900460ff1660048111156105b6576105b5610c88565b5b146105f6576040517f08c379a00000000000000000000000000000000000000000000000000000000081526004016105ed906110a9565b60405180910390fd5b600260008084815260200190815260200160002060050160006101000a81548160ff0219169083600481111561062f5761062e610c88565b5b021790555042600080848152602001908152602001600020600701819055506000806000848152602001908152602001600020600401549050600080600085815260200190815260200160002060020160009054906101000a900473ffffffffffffffffffffffffffffffffffffffff16905060008173ffffffffffffffffffffffffffffffffffffffff16836040516106c8906110fa565b60006040518083038185875af1925050503d8060008114610705576040519150601f19603f3d011682016040523d82523d6000602084013e61070a565b606091505b505090508061074e576040517f08c379a00000000000000000000000000000000000000000000000000000000081526004016107459061115b565b60405180910390fd5b847f24040ae9d5fe6873f45a1464829b0db0d8010aa3d8819ad9acd6a432c4c540e660405160405180910390a28173ffffffffffffffffffffffffffffffffffffffff16857f21d71db5be59bb9fa133895586b7404307dd33fb93b16db09dc6f1d9d7d231b0856040516107c29190610c31565b60405180910390a35050505050565b6107d9610ab3565b60008083815260200190815260200160002060405180610100016040529081600082015481526020016001820160009054906101000a900473ffffffffffffffffffffffffffffffffffffffff1673ffffffffffffffffffffffffffffffffffffffff1673ffffffffffffffffffffffffffffffffffffffff1681526020016002820160009054906101000a900473ffffffffffffffffffffffffffffffffffffffff1673ffffffffffffffffffffffffffffffffffffffff1673ffffffffffffffffffffffffffffffffffffffff16815260200160038201548152602001600482015481526020016005820160009054906101000a900460ff1660048111156108e6576108e5610c88565b5b60048111156108f8576108f7610c88565b5b8152602001600682015481526020016007820154815250509050919050565b803373ffffffffffffffffffffffffffffffffffffffff1660008083815260200190815260200160002060020160009054906101000a900473ffffffffffffffffffffffffffffffffffffffff1673ffffffffffffffffffffffffffffffffffffffff16146109bb576040517f08c379a00000000000000000000000000000000000000000000000000000000081526004016109b2906111c7565b60405180910390fd5b600060048111156109cf576109ce610c88565b5b60008084815260200190815260200160002060050160009054906101000a900460ff166004811115610a0457610a03610c88565b5b14610a44576040517f08c379a0000000000000000000000000000000000000000000000000000000008152600401610a3b90611233565b60405180910390fd5b600160008084815260200190815260200160002060050160006101000a81548160ff02191690836004811115610a7d57610a7c610c88565b5b0217905550817ff9397695399a97b8d6ad31317a8d27205f358064753218be5d6cb2708ab23ab160405160405180910390a25050565b60405180610100016040528060008152602001600073ffffffffffffffffffffffffffffffffffffffff168152602001600073ffffffffffffffffffffffffffffffffffffffff168152602001600081526020016000815260200160006004811115610b2257610b21610c88565b5b815260200160008152602001600081525090565b600080fd5b600073ffffffffffffffffffffffffffffffffffffffff82169050919050565b6000610b6682610b3b565b9050919050565b610b7681610b5b565b8114610b8157600080fd5b50565b600081359050610b9381610b6d565b92915050565b6000819050919050565b610bac81610b99565b8114610bb757600080fd5b50565b600081359050610bc981610ba3565b92915050565b600080600060608486031215610be857610be7610b36565b5b6000610bf686828701610b84565b9350506020610c0786828701610bba565b9250506040610c1886828701610bba565b9150509250925092565b610c2b81610b99565b82525050565b6000602082019050610c466000830184610c22565b92915050565b600060208284031215610c6257610c61610b36565b5b6000610c7084828501610bba565b91505092915050565b610c8281610b5b565b82525050565b7f4e487b7100000000000000000000000000000000000000000000000000000000600052602160045260246000fd5b60058110610cc857610cc7610c88565b5b50565b6000819050610cd982610cb7565b919050565b6000610ce982610ccb565b9050919050565b610cf981610cde565b82525050565b600061010082019050610d15600083018b610c22565b610d22602083018a610c79565b610d2f6040830189610c79565b610d3c6060830188610c22565b610d496080830187610c22565b610d5660a0830186610cf0565b610d6360c0830185610c22565b610d7060e0830184610c22565b9998505050505050505050565b610d8681610b99565b82525050565b610d9581610b5b565b82525050565b610da481610cde565b82525050565b61010082016000820151610dc16000850182610d7d565b506020820151610dd46020850182610d8c565b506040820151610de76040850182610d8c565b506060820151610dfa6060850182610d7d565b506080820151610e0d6080850182610d7d565b5060a0820151610e2060a0850182610d9b565b5060c0820151610e3360c0850182610d7d565b5060e0820151610e4660e0850182610d7d565b50505050565b600061010082019050610e626000830184610daa565b92915050565b600082825260208201905092915050565b7f5061796d656e74206d7573742062652067726561746572207468616e20300000600082015250565b6000610eaf601e83610e68565b9150610eba82610e79565b602082019050919050565b60006020820190508181036000830152610ede81610ea2565b9050919050565b7f496e76616c696420726563727569746572206164647265737300000000000000600082015250565b6000610f1b601983610e68565b9150610f2682610ee5565b602082019050919050565b60006020820190508181036000830152610f4a81610f0e565b9050919050565b7f4e487b7100000000000000000000000000000000000000000000000000000000600052601160045260246000fd5b6000610f8b82610b99565b91507fffffffffffffffffffffffffffffffffffffffffffffffffffffffffffffffff8203610fbd57610fbc610f51565b5b600182019050919050565b6000604082019050610fdd6000830185610c22565b610fea6020830184610c22565b9392505050565b7f4f6e6c7920656d706c6f7965722063616e2063616c6c20746869730000000000600082015250565b6000611027601b83610e68565b915061103282610ff1565b602082019050919050565b600060208201905081810360008301526110568161101a565b9050919050565b7f41737369676e6d656e74206e6f74206163636570746564000000000000000000600082015250565b6000611093601783610e68565b915061109e8261105d565b602082019050919050565b600060208201905081810360008301526110c281611086565b9050919050565b600081905092915050565b50565b60006110e46000836110c9565b91506110ef826110d4565b600082019050919050565b6000611105826110d7565b9150819050919050565b7f5061796d656e74207472616e73666572206661696c6564000000000000000000600082015250565b6000611145601783610e68565b91506111508261110f565b602082019050919050565b6000602082019050818103600083015261117481611138565b9050919050565b7f4f6e6c79207265637275697465722063616e2063616c6c207468697300000000600082015250565b60006111b1601c83610e68565b91506111bc8261117b565b602082019050919050565b600060208201905081810360008301526111e0816111a4565b9050919050565b7f41737369676e6d656e74206e6f742070656e64696e6700000000000000000000600082015250565b600061121d601683610e68565b9150611228826111e7565b602082019050919050565b6000602082019050818103600083015261124c81611210565b905091905056fea26469706673582212200686ea0a62662cfb31e0673c28668224dfd1f642804edc52ac26b7d6a3a5c11964736f6c63430008130033",
  "linkReferences": {},
  "deployedLinkReferences": {}
}